{
	"_format": "hh-sol-artifact-1",
	"contractName": "MyPokemonGame",
	"sourceName": "contracts/MyPokemonGame.sol",
	"abi": [
		{
			"inputs": [
				{
					"internalType": "string[]",
					"name": "pokemonNames",
					"type": "string[]"
				},
				{
					"internalType": "string[]",
					"name": "pokemonImageURIs",
					"type": "string[]"
				},
				{
					"internalType": "uint256[]",
					"name": "pokemonHp",
					"type": "uint256[]"
				},
				{
					"internalType": "uint256[]",
					"name": "pokemonAttacks",
					"type": "uint256[]"
				},
				{
					"components": [
						{
							"internalType": "string",
							"name": "name",
							"type": "string"
						},
						{
							"internalType": "uint256",
							"name": "power",
							"type": "uint256"
						}
					],
					"internalType": "struct MyPokemonGame.PokemonMove[]",
					"name": "pokemonMoves",
					"type": "tuple[]"
				},
				{
					"internalType": "string",
					"name": "bigBossName",
					"type": "string"
				},
				{
					"internalType": "string",
					"name": "bigBossImageURI",
					"type": "string"
				},
				{
					"internalType": "uint256",
					"name": "bigBossHp",
					"type": "uint256"
				},
				{
					"internalType": "uint256",
					"name": "bigBossAttackDamage",
					"type": "uint256"
				}
			],
			"stateMutability": "nonpayable",
			"type": "constructor"
		},
		{
			"anonymous": false,
			"inputs": [
				{
					"indexed": true,
					"internalType": "address",
					"name": "owner",
					"type": "address"
				},
				{
					"indexed": true,
					"internalType": "address",
					"name": "approved",
					"type": "address"
				},
				{
					"indexed": true,
					"internalType": "uint256",
					"name": "tokenId",
					"type": "uint256"
				}
			],
			"name": "Approval",
			"type": "event"
		},
		{
			"anonymous": false,
			"inputs": [
				{
					"indexed": true,
					"internalType": "address",
					"name": "owner",
					"type": "address"
				},
				{
					"indexed": true,
					"internalType": "address",
					"name": "operator",
					"type": "address"
				},
				{
					"indexed": false,
					"internalType": "bool",
					"name": "approved",
					"type": "bool"
				}
			],
			"name": "ApprovalForAll",
			"type": "event"
		},
		{
			"anonymous": false,
			"inputs": [
				{
					"indexed": false,
					"internalType": "address",
					"name": "sender",
					"type": "address"
				},
				{
					"indexed": false,
					"internalType": "uint256",
					"name": "newBossHp",
					"type": "uint256"
				},
				{
					"indexed": false,
					"internalType": "uint256",
					"name": "newPlayerHp",
					"type": "uint256"
				}
			],
			"name": "AttackComplete",
			"type": "event"
		},
		{
			"anonymous": false,
			"inputs": [
				{
					"indexed": false,
					"internalType": "address",
					"name": "sender",
					"type": "address"
				},
				{
					"indexed": false,
					"internalType": "uint256",
					"name": "tokenId",
					"type": "uint256"
				},
				{
					"indexed": false,
					"internalType": "uint256",
					"name": "pokemonIndex",
					"type": "uint256"
				}
			],
			"name": "PokemonNFTMinted",
			"type": "event"
		},
		{
			"anonymous": false,
			"inputs": [
				{
					"indexed": true,
					"internalType": "address",
					"name": "from",
					"type": "address"
				},
				{
					"indexed": true,
					"internalType": "address",
					"name": "to",
					"type": "address"
				},
				{
					"indexed": true,
					"internalType": "uint256",
					"name": "tokenId",
					"type": "uint256"
				}
			],
			"name": "Transfer",
			"type": "event"
		},
		{
			"inputs": [
				{
					"internalType": "address",
					"name": "to",
					"type": "address"
				},
				{
					"internalType": "uint256",
					"name": "tokenId",
					"type": "uint256"
				}
			],
			"name": "approve",
			"outputs": [],
			"stateMutability": "nonpayable",
			"type": "function"
		},
		{
			"inputs": [],
			"name": "attackBoss",
			"outputs": [],
			"stateMutability": "nonpayable",
			"type": "function"
		},
		{
			"inputs": [
				{
					"internalType": "address",
					"name": "owner",
					"type": "address"
				}
			],
			"name": "balanceOf",
			"outputs": [
				{
					"internalType": "uint256",
					"name": "",
					"type": "uint256"
				}
			],
			"stateMutability": "view",
			"type": "function"
		},
		{
			"inputs": [],
			"name": "bigBoss",
			"outputs": [
				{
					"internalType": "string",
					"name": "name",
					"type": "string"
				},
				{
					"internalType": "string",
					"name": "imageURI",
					"type": "string"
				},
				{
					"internalType": "uint256",
					"name": "hp",
					"type": "uint256"
				},
				{
					"internalType": "uint256",
					"name": "maxHp",
					"type": "uint256"
				},
				{
					"internalType": "uint256",
					"name": "attackDamage",
					"type": "uint256"
				}
			],
			"stateMutability": "view",
			"type": "function"
		},
		{
			"inputs": [],
			"name": "checkIfUserHasNFT",
			"outputs": [
				{
					"components": [
						{
							"internalType": "uint256",
							"name": "pokemonIndex",
							"type": "uint256"
						},
						{
							"internalType": "string",
							"name": "name",
							"type": "string"
						},
						{
							"internalType": "string",
							"name": "imageURI",
							"type": "string"
						},
						{
							"internalType": "uint256",
							"name": "hp",
							"type": "uint256"
						},
						{
							"internalType": "uint256",
							"name": "maxHp",
							"type": "uint256"
						},
						{
							"internalType": "uint256",
							"name": "attack",
							"type": "uint256"
						},
						{
							"components": [
								{
									"internalType": "string",
									"name": "name",
									"type": "string"
								},
								{
									"internalType": "uint256",
									"name": "power",
									"type": "uint256"
								}
							],
							"internalType": "struct MyPokemonGame.PokemonMove",
							"name": "move",
							"type": "tuple"
						}
					],
					"internalType": "struct MyPokemonGame.PokemonAttributes",
					"name": "",
					"type": "tuple"
				}
			],
			"stateMutability": "view",
			"type": "function"
		},
		{
			"inputs": [],
			"name": "getAllDefaultPokemons",
			"outputs": [
				{
					"components": [
						{
							"internalType": "uint256",
							"name": "pokemonIndex",
							"type": "uint256"
						},
						{
							"internalType": "string",
							"name": "name",
							"type": "string"
						},
						{
							"internalType": "string",
							"name": "imageURI",
							"type": "string"
						},
						{
							"internalType": "uint256",
							"name": "hp",
							"type": "uint256"
						},
						{
							"internalType": "uint256",
							"name": "maxHp",
							"type": "uint256"
						},
						{
							"internalType": "uint256",
							"name": "attack",
							"type": "uint256"
						},
						{
							"components": [
								{
									"internalType": "string",
									"name": "name",
									"type": "string"
								},
								{
									"internalType": "uint256",
									"name": "power",
									"type": "uint256"
								}
							],
							"internalType": "struct MyPokemonGame.PokemonMove",
							"name": "move",
							"type": "tuple"
						}
					],
					"internalType": "struct MyPokemonGame.PokemonAttributes[]",
					"name": "",
					"type": "tuple[]"
				}
			],
			"stateMutability": "view",
			"type": "function"
		},
		{
			"inputs": [
				{
					"internalType": "uint256",
					"name": "tokenId",
					"type": "uint256"
				}
			],
			"name": "getApproved",
			"outputs": [
				{
					"internalType": "address",
					"name": "",
					"type": "address"
				}
			],
			"stateMutability": "view",
			"type": "function"
		},
		{
			"inputs": [],
			"name": "getBoss",
			"outputs": [
				{
					"components": [
						{
							"internalType": "string",
							"name": "name",
							"type": "string"
						},
						{
							"internalType": "string",
							"name": "imageURI",
							"type": "string"
						},
						{
							"internalType": "uint256",
							"name": "hp",
							"type": "uint256"
						},
						{
							"internalType": "uint256",
							"name": "maxHp",
							"type": "uint256"
						},
						{
							"internalType": "uint256",
							"name": "attackDamage",
							"type": "uint256"
						}
					],
					"internalType": "struct MyPokemonGame.BigBoss",
					"name": "",
					"type": "tuple"
				}
			],
			"stateMutability": "view",
			"type": "function"
		},
		{
			"inputs": [
				{
					"internalType": "address",
					"name": "owner",
					"type": "address"
				},
				{
					"internalType": "address",
					"name": "operator",
					"type": "address"
				}
			],
			"name": "isApprovedForAll",
			"outputs": [
				{
					"internalType": "bool",
					"name": "",
					"type": "bool"
				}
			],
			"stateMutability": "view",
			"type": "function"
		},
		{
			"inputs": [
				{
					"internalType": "uint256",
					"name": "_pokemonIndex",
					"type": "uint256"
				}
			],
			"name": "mintPokemonNFT",
			"outputs": [],
			"stateMutability": "nonpayable",
			"type": "function"
		},
		{
			"inputs": [],
			"name": "name",
			"outputs": [
				{
					"internalType": "string",
					"name": "",
					"type": "string"
				}
			],
			"stateMutability": "view",
			"type": "function"
		},
		{
			"inputs": [
				{
					"internalType": "uint256",
					"name": "",
					"type": "uint256"
				}
			],
			"name": "nftHolderAttributes",
			"outputs": [
				{
					"internalType": "uint256",
					"name": "pokemonIndex",
					"type": "uint256"
				},
				{
					"internalType": "string",
					"name": "name",
					"type": "string"
				},
				{
					"internalType": "string",
					"name": "imageURI",
					"type": "string"
				},
				{
					"internalType": "uint256",
					"name": "hp",
					"type": "uint256"
				},
				{
					"internalType": "uint256",
					"name": "maxHp",
					"type": "uint256"
				},
				{
					"internalType": "uint256",
					"name": "attack",
					"type": "uint256"
				},
				{
					"components": [
						{
							"internalType": "string",
							"name": "name",
							"type": "string"
						},
						{
							"internalType": "uint256",
							"name": "power",
							"type": "uint256"
						}
					],
					"internalType": "struct MyPokemonGame.PokemonMove",
					"name": "move",
					"type": "tuple"
				}
			],
			"stateMutability": "view",
			"type": "function"
		},
		{
			"inputs": [
				{
					"internalType": "address",
					"name": "",
					"type": "address"
				}
			],
			"name": "nftHolders",
			"outputs": [
				{
					"internalType": "uint256",
					"name": "",
					"type": "uint256"
				}
			],
			"stateMutability": "view",
			"type": "function"
		},
		{
			"inputs": [
				{
					"internalType": "uint256",
					"name": "tokenId",
					"type": "uint256"
				}
			],
			"name": "ownerOf",
			"outputs": [
				{
					"internalType": "address",
					"name": "",
					"type": "address"
				}
			],
			"stateMutability": "view",
			"type": "function"
		},
		{
			"inputs": [
				{
					"internalType": "address",
					"name": "from",
					"type": "address"
				},
				{
					"internalType": "address",
					"name": "to",
					"type": "address"
				},
				{
					"internalType": "uint256",
					"name": "tokenId",
					"type": "uint256"
				}
			],
			"name": "safeTransferFrom",
			"outputs": [],
			"stateMutability": "nonpayable",
			"type": "function"
		},
		{
			"inputs": [
				{
					"internalType": "address",
					"name": "from",
					"type": "address"
				},
				{
					"internalType": "address",
					"name": "to",
					"type": "address"
				},
				{
					"internalType": "uint256",
					"name": "tokenId",
					"type": "uint256"
				},
				{
					"internalType": "bytes",
					"name": "data",
					"type": "bytes"
				}
			],
			"name": "safeTransferFrom",
			"outputs": [],
			"stateMutability": "nonpayable",
			"type": "function"
		},
		{
			"inputs": [
				{
					"internalType": "address",
					"name": "operator",
					"type": "address"
				},
				{
					"internalType": "bool",
					"name": "approved",
					"type": "bool"
				}
			],
			"name": "setApprovalForAll",
			"outputs": [],
			"stateMutability": "nonpayable",
			"type": "function"
		},
		{
			"inputs": [
				{
					"internalType": "bytes4",
					"name": "interfaceId",
					"type": "bytes4"
				}
			],
			"name": "supportsInterface",
			"outputs": [
				{
					"internalType": "bool",
					"name": "",
					"type": "bool"
				}
			],
			"stateMutability": "view",
			"type": "function"
		},
		{
			"inputs": [],
			"name": "symbol",
			"outputs": [
				{
					"internalType": "string",
					"name": "",
					"type": "string"
				}
			],
			"stateMutability": "view",
			"type": "function"
		},
		{
			"inputs": [
				{
					"internalType": "uint256",
					"name": "_tokenId",
					"type": "uint256"
				}
			],
			"name": "tokenURI",
			"outputs": [
				{
					"internalType": "string",
					"name": "",
					"type": "string"
				}
			],
			"stateMutability": "view",
			"type": "function"
		},
		{
			"inputs": [
				{
					"internalType": "address",
					"name": "from",
					"type": "address"
				},
				{
					"internalType": "address",
					"name": "to",
					"type": "address"
				},
				{
					"internalType": "uint256",
					"name": "tokenId",
					"type": "uint256"
				}
			],
			"name": "transferFrom",
			"outputs": [],
			"stateMutability": "nonpayable",
			"type": "function"
		}
	],
	"bytecode": "0x60806040526000600f553480156200001657600080fd5b5060405162006e8238038062006e8283398181016040528101906200003c919062000d11565b6040518060400160405280600781526020017f506f6b656d6f6e000000000000000000000000000000000000000000000000008152506040518060400160405280600481526020017f504f4b45000000000000000000000000000000000000000000000000000000008152508160009081620000b991906200110a565b508060019081620000cb91906200110a565b5050506040518060a0016040528085815260200184815260200183815260200183815260200182815250600660008201518160000190816200010e91906200110a565b5060208201518160010190816200012691906200110a565b50604082015181600201556060820151816003015560808201518160040155905050620002a96040518060600160405280602c815260200162006e2f602c913960066000018054620001789062000f03565b80601f0160208091040260200160405190810160405280929190818152602001828054620001a69062000f03565b8015620001f75780601f10620001cb57610100808354040283529160200191620001f7565b820191906000526020600020905b815481529060010190602001808311620001d957829003601f168201915b505050505060066002015460066001018054620002149062000f03565b80601f0160208091040260200160405190810160405280929190818152602001828054620002429062000f03565b8015620002935780601f10620002675761010080835404028352916020019162000293565b820191906000526020600020905b8154815290600101906020018083116200027557829003601f168201915b50505050506200070d60201b620025f61760201c565b60005b8951811015620006e657600c6040518060e001604052808381526020018c8481518110620002df57620002de620011f1565b5b602002602001015181526020018b8481518110620003025762000301620011f1565b5b602002602001015181526020018a8481518110620003255762000324620011f1565b5b602002602001015181526020018a8481518110620003485762000347620011f1565b5b602002602001015181526020018984815181106200036b576200036a620011f1565b5b602002602001015181526020018884815181106200038e576200038d620011f1565b5b60200260200101518152509080600181540180825580915050600190039060005260206000209060080201600090919091909150600082015181600001556020820151816001019081620003e391906200110a565b506040820151816002019081620003fb91906200110a565b50606082015181600301556080820151816004015560a0820151816005015560c08201518160060160008201518160000190816200043a91906200110a565b5060208201518160010155505050506000600c8281548110620004625762000461620011f1565b5b90600052602060002090600802016040518060e001604052908160008201548152602001600182018054620004979062000f03565b80601f0160208091040260200160405190810160405280929190818152602001828054620004c59062000f03565b8015620005165780601f10620004ea5761010080835404028352916020019162000516565b820191906000526020600020905b815481529060010190602001808311620004f857829003601f168201915b50505050508152602001600282018054620005319062000f03565b80601f01602080910402602001604051908101604052809291908181526020018280546200055f9062000f03565b8015620005b05780601f106200058457610100808354040283529160200191620005b0565b820191906000526020600020905b8154815290600101906020018083116200059257829003601f168201915b5050505050815260200160038201548152602001600482015481526020016005820154815260200160068201604051806040016040529081600082018054620005f99062000f03565b80601f0160208091040260200160405190810160405280929190818152602001828054620006279062000f03565b8015620006785780601f106200064c5761010080835404028352916020019162000678565b820191906000526020600020905b8154815290600101906020018083116200065a57829003601f168201915b50505050508152602001600182015481525050815250509050620006cf60405180606001604052806027815260200162006e5b602791398260200151836060015184604001516200070d60201b620025f61760201c565b508080620006dd906200124f565b915050620002ac565b50620006fe600b620007b960201b620026981760201c565b50505050505050505062001361565b620007b3848484846040516024016200072a9493929190620012ff565b6040516020818303038152906040527f5d1a971a000000000000000000000000000000000000000000000000000000007bffffffffffffffffffffffffffffffffffffffffffffffffffffffff19166020820180517bffffffffffffffffffffffffffffffffffffffffffffffffffffffff8381831617835250505050620007cf60201b60201c565b50505050565b6001816000016000828254019250508190555050565b60008151905060006a636f6e736f6c652e6c6f679050602083016000808483855afa5050505050565b6000604051905090565b600080fd5b600080fd5b600080fd5b6000601f19601f8301169050919050565b7f4e487b7100000000000000000000000000000000000000000000000000000000600052604160045260246000fd5b6200085c8262000811565b810181811067ffffffffffffffff821117156200087e576200087d62000822565b5b80604052505050565b600062000893620007f8565b9050620008a1828262000851565b919050565b600067ffffffffffffffff821115620008c457620008c362000822565b5b602082029050602081019050919050565b600080fd5b600080fd5b600067ffffffffffffffff821115620008fd57620008fc62000822565b5b620009088262000811565b9050602081019050919050565b60005b838110156200093557808201518184015260208101905062000918565b60008484015250505050565b6000620009586200095284620008df565b62000887565b905082815260208101848484011115620009775762000976620008da565b5b6200098484828562000915565b509392505050565b600082601f830112620009a457620009a36200080c565b5b8151620009b684826020860162000941565b91505092915050565b6000620009d6620009d084620008a6565b62000887565b90508083825260208201905060208402830185811115620009fc57620009fb620008d5565b5b835b8181101562000a4a57805167ffffffffffffffff81111562000a255762000a246200080c565b5b80860162000a3489826200098c565b85526020850194505050602081019050620009fe565b5050509392505050565b600082601f83011262000a6c5762000a6b6200080c565b5b815162000a7e848260208601620009bf565b91505092915050565b600067ffffffffffffffff82111562000aa55762000aa462000822565b5b602082029050602081019050919050565b6000819050919050565b62000acb8162000ab6565b811462000ad757600080fd5b50565b60008151905062000aeb8162000ac0565b92915050565b600062000b0862000b028462000a87565b62000887565b9050808382526020820190506020840283018581111562000b2e5762000b2d620008d5565b5b835b8181101562000b5b578062000b46888262000ada565b84526020840193505060208101905062000b30565b5050509392505050565b600082601f83011262000b7d5762000b7c6200080c565b5b815162000b8f84826020860162000af1565b91505092915050565b600067ffffffffffffffff82111562000bb65762000bb562000822565b5b602082029050602081019050919050565b600080fd5b600080fd5b60006040828403121562000bea5762000be962000bc7565b5b62000bf6604062000887565b9050600082015167ffffffffffffffff81111562000c195762000c1862000bcc565b5b62000c27848285016200098c565b600083015250602062000c3d8482850162000ada565b60208301525092915050565b600062000c6062000c5a8462000b98565b62000887565b9050808382526020820190506020840283018581111562000c865762000c85620008d5565b5b835b8181101562000cd457805167ffffffffffffffff81111562000caf5762000cae6200080c565b5b80860162000cbe898262000bd1565b8552602085019450505060208101905062000c88565b5050509392505050565b600082601f83011262000cf65762000cf56200080c565b5b815162000d0884826020860162000c49565b91505092915050565b60008060008060008060008060006101208a8c03121562000d375762000d3662000802565b5b60008a015167ffffffffffffffff81111562000d585762000d5762000807565b5b62000d668c828d0162000a54565b99505060208a015167ffffffffffffffff81111562000d8a5762000d8962000807565b5b62000d988c828d0162000a54565b98505060408a015167ffffffffffffffff81111562000dbc5762000dbb62000807565b5b62000dca8c828d0162000b65565b97505060608a015167ffffffffffffffff81111562000dee5762000ded62000807565b5b62000dfc8c828d0162000b65565b96505060808a015167ffffffffffffffff81111562000e205762000e1f62000807565b5b62000e2e8c828d0162000cde565b95505060a08a015167ffffffffffffffff81111562000e525762000e5162000807565b5b62000e608c828d016200098c565b94505060c08a015167ffffffffffffffff81111562000e845762000e8362000807565b5b62000e928c828d016200098c565b93505060e062000ea58c828d0162000ada565b92505061010062000eb98c828d0162000ada565b9150509295985092959850929598565b600081519050919050565b7f4e487b7100000000000000000000000000000000000000000000000000000000600052602260045260246000fd5b6000600282049050600182168062000f1c57607f821691505b60208210810362000f325762000f3162000ed4565b5b50919050565b60008190508160005260206000209050919050565b60006020601f8301049050919050565b600082821b905092915050565b60006008830262000f9c7fffffffffffffffffffffffffffffffffffffffffffffffffffffffffffffffff8262000f5d565b62000fa8868362000f5d565b95508019841693508086168417925050509392505050565b6000819050919050565b600062000feb62000fe562000fdf8462000ab6565b62000fc0565b62000ab6565b9050919050565b6000819050919050565b620010078362000fca565b6200101f620010168262000ff2565b84845462000f6a565b825550505050565b600090565b6200103662001027565b6200104381848462000ffc565b505050565b5b818110156200106b576200105f6000826200102c565b60018101905062001049565b5050565b601f821115620010ba57620010848162000f38565b6200108f8462000f4d565b810160208510156200109f578190505b620010b7620010ae8562000f4d565b83018262001048565b50505b505050565b600082821c905092915050565b6000620010df60001984600802620010bf565b1980831691505092915050565b6000620010fa8383620010cc565b9150826002028217905092915050565b620011158262000ec9565b67ffffffffffffffff81111562001131576200113062000822565b5b6200113d825462000f03565b6200114a8282856200106f565b600060209050601f8311600181146200118257600084156200116d578287015190505b620011798582620010ec565b865550620011e9565b601f198416620011928662000f38565b60005b82811015620011bc5784890151825560018201915060208501945060208101905062001195565b86831015620011dc5784890151620011d8601f891682620010cc565b8355505b6001600288020188555050505b505050505050565b7f4e487b7100000000000000000000000000000000000000000000000000000000600052603260045260246000fd5b7f4e487b7100000000000000000000000000000000000000000000000000000000600052601160045260246000fd5b60006200125c8262000ab6565b91507fffffffffffffffffffffffffffffffffffffffffffffffffffffffffffffffff820362001291576200129062001220565b5b600182019050919050565b600082825260208201905092915050565b6000620012ba8262000ec9565b620012c681856200129c565b9350620012d881856020860162000915565b620012e38162000811565b840191505092915050565b620012f98162000ab6565b82525050565b600060808201905081810360008301526200131b8187620012ad565b90508181036020830152620013318186620012ad565b9050620013426040830185620012ee565b8181036060830152620013568184620012ad565b905095945050505050565b615abe80620013716000396000f3fe608060405234801561001057600080fd5b50600436106101375760003560e01c806395d89b41116100b8578063c76d9e7d1161007c578063c76d9e7d14610368578063c87b56dd14610386578063c8cf27f4146103b6578063d4f24c5b146103d4578063d5b0c890146103de578063e985e9c5146103fc57610137565b806395d89b41146102ba57806398da4c95146102d8578063a22cb4651461030e578063a9c326791461032a578063b88d4fde1461034c57610137565b8063343023af116100ff578063343023af146101f257806342842e0e1461020e5780636352211e1461022a57806370a082311461025a5780637df124a11461028a57610137565b806301ffc9a71461013c57806306fdde031461016c578063081812fc1461018a578063095ea7b3146101ba57806323b872dd146101d6575b600080fd5b61015660048036038101906101519190613bc2565b61042c565b6040516101639190613c0a565b60405180910390f35b61017461050e565b6040516101819190613cb5565b60405180910390f35b6101a4600480360381019061019f9190613d0d565b6105a0565b6040516101b19190613d7b565b60405180910390f35b6101d460048036038101906101cf9190613dc2565b6105e6565b005b6101f060048036038101906101eb9190613e02565b6106fd565b005b61020c60048036038101906102079190613d0d565b61075d565b005b61022860048036038101906102239190613e02565b610b81565b005b610244600480360381019061023f9190613d0d565b610ba1565b6040516102519190613d7b565b60405180910390f35b610274600480360381019061026f9190613e55565b610c27565b6040516102819190613e91565b60405180910390f35b6102a4600480360381019061029f9190613e55565b610cde565b6040516102b19190613e91565b60405180910390f35b6102c2610cf6565b6040516102cf9190613cb5565b60405180910390f35b6102f260048036038101906102ed9190613d0d565b610d88565b6040516103059796959493929190613f42565b60405180910390f35b61032860048036038101906103239190613ff2565b610f80565b005b610332610f96565b604051610343959493929190614032565b60405180910390f35b610366600480360381019061036191906141c8565b6110ca565b005b61037061112c565b60405161037d91906142c8565b60405180910390f35b6103a0600480360381019061039b9190613d0d565b611288565b6040516103ad9190613cb5565b60405180910390f35b6103be611579565b6040516103cb91906143d1565b60405180910390f35b6103dc611801565b005b6103e6612307565b6040516103f3919061455f565b60405180910390f35b61041660048036038101906104119190614581565b612562565b6040516104239190613c0a565b60405180910390f35b60007f80ac58cd000000000000000000000000000000000000000000000000000000007bffffffffffffffffffffffffffffffffffffffffffffffffffffffff1916827bffffffffffffffffffffffffffffffffffffffffffffffffffffffff191614806104f757507f5b5e139f000000000000000000000000000000000000000000000000000000007bffffffffffffffffffffffffffffffffffffffffffffffffffffffff1916827bffffffffffffffffffffffffffffffffffffffffffffffffffffffff1916145b806105075750610506826126ae565b5b9050919050565b60606000805461051d906145f0565b80601f0160208091040260200160405190810160405280929190818152602001828054610549906145f0565b80156105965780601f1061056b57610100808354040283529160200191610596565b820191906000526020600020905b81548152906001019060200180831161057957829003601f168201915b5050505050905090565b60006105ab82612718565b6004600083815260200190815260200160002060009054906101000a900473ffffffffffffffffffffffffffffffffffffffff169050919050565b60006105f182610ba1565b90508073ffffffffffffffffffffffffffffffffffffffff168373ffffffffffffffffffffffffffffffffffffffff1603610661576040517f08c379a000000000000000000000000000000000000000000000000000000000815260040161065890614693565b60405180910390fd5b8073ffffffffffffffffffffffffffffffffffffffff16610680612763565b73ffffffffffffffffffffffffffffffffffffffff1614806106af57506106ae816106a9612763565b612562565b5b6106ee576040517f08c379a00000000000000000000000000000000000000000000000000000000081526004016106e590614725565b60405180910390fd5b6106f8838361276b565b505050565b61070e610708612763565b82612824565b61074d576040517f08c379a0000000000000000000000000000000000000000000000000000000008152600401610744906147b7565b60405180910390fd5b6107588383836128b9565b505050565b6000610769600b612bb2565b90506107753382612bc0565b6040518060e00160405280838152602001600c848154811061079a576107996147d7565b5b906000526020600020906008020160010180546107b6906145f0565b80601f01602080910402602001604051908101604052809291908181526020018280546107e2906145f0565b801561082f5780601f106108045761010080835404028352916020019161082f565b820191906000526020600020905b81548152906001019060200180831161081257829003601f168201915b50505050508152602001600c848154811061084d5761084c6147d7565b5b90600052602060002090600802016002018054610869906145f0565b80601f0160208091040260200160405190810160405280929190818152602001828054610895906145f0565b80156108e25780601f106108b7576101008083540402835291602001916108e2565b820191906000526020600020905b8154815290600101906020018083116108c557829003601f168201915b50505050508152602001600c8481548110610900576108ff6147d7565b5b9060005260206000209060080201600301548152602001600c848154811061092b5761092a6147d7565b5b9060005260206000209060080201600401548152602001600c8481548110610956576109556147d7565b5b9060005260206000209060080201600501548152602001600c8481548110610981576109806147d7565b5b90600052602060002090600802016006016040518060400160405290816000820180546109ad906145f0565b80601f01602080910402602001604051908101604052809291908181526020018280546109d9906145f0565b8015610a265780601f106109fb57610100808354040283529160200191610a26565b820191906000526020600020905b815481529060010190602001808311610a0957829003601f168201915b50505050508152602001600182015481525050815250600d6000838152602001908152602001600020600082015181600001556020820151816001019081610a6e91906149b2565b506040820151816002019081610a8491906149b2565b50606082015181600301556080820151816004015560a0820151816005015560c0820151816006016000820151816000019081610ac191906149b2565b50602082015181600101555050905050610af46040518060600160405280602e8152602001615a1b602e91398284612bde565b80600e60003373ffffffffffffffffffffffffffffffffffffffff1673ffffffffffffffffffffffffffffffffffffffff16815260200190815260200160002081905550610b42600b612698565b7f60e1f0c62ae107984ff8409b83c23d1025c9e003037cf8d4fb479c49645b3140338284604051610b7593929190614a84565b60405180910390a15050565b610b9c838383604051806020016040528060008152506110ca565b505050565b600080610bad83612c7d565b9050600073ffffffffffffffffffffffffffffffffffffffff168173ffffffffffffffffffffffffffffffffffffffff1603610c1e576040517f08c379a0000000000000000000000000000000000000000000000000000000008152600401610c1590614b07565b60405180910390fd5b80915050919050565b60008073ffffffffffffffffffffffffffffffffffffffff168273ffffffffffffffffffffffffffffffffffffffff1603610c97576040517f08c379a0000000000000000000000000000000000000000000000000000000008152600401610c8e90614b99565b60405180910390fd5b600360008373ffffffffffffffffffffffffffffffffffffffff1673ffffffffffffffffffffffffffffffffffffffff168152602001908152602001600020549050919050565b600e6020528060005260406000206000915090505481565b606060018054610d05906145f0565b80601f0160208091040260200160405190810160405280929190818152602001828054610d31906145f0565b8015610d7e5780601f10610d5357610100808354040283529160200191610d7e565b820191906000526020600020905b815481529060010190602001808311610d6157829003601f168201915b5050505050905090565b600d602052806000526040600020600091509050806000015490806001018054610db1906145f0565b80601f0160208091040260200160405190810160405280929190818152602001828054610ddd906145f0565b8015610e2a5780601f10610dff57610100808354040283529160200191610e2a565b820191906000526020600020905b815481529060010190602001808311610e0d57829003601f168201915b505050505090806002018054610e3f906145f0565b80601f0160208091040260200160405190810160405280929190818152602001828054610e6b906145f0565b8015610eb85780601f10610e8d57610100808354040283529160200191610eb8565b820191906000526020600020905b815481529060010190602001808311610e9b57829003601f168201915b50505050509080600301549080600401549080600501549080600601604051806040016040529081600082018054610eef906145f0565b80601f0160208091040260200160405190810160405280929190818152602001828054610f1b906145f0565b8015610f685780601f10610f3d57610100808354040283529160200191610f68565b820191906000526020600020905b815481529060010190602001808311610f4b57829003601f168201915b50505050508152602001600182015481525050905087565b610f92610f8b612763565b8383612cba565b5050565b6006806000018054610fa7906145f0565b80601f0160208091040260200160405190810160405280929190818152602001828054610fd3906145f0565b80156110205780601f10610ff557610100808354040283529160200191611020565b820191906000526020600020905b81548152906001019060200180831161100357829003601f168201915b505050505090806001018054611035906145f0565b80601f0160208091040260200160405190810160405280929190818152602001828054611061906145f0565b80156110ae5780601f10611083576101008083540402835291602001916110ae565b820191906000526020600020905b81548152906001019060200180831161109157829003601f168201915b5050505050908060020154908060030154908060040154905085565b6110db6110d5612763565b83612824565b61111a576040517f08c379a0000000000000000000000000000000000000000000000000000000008152600401611111906147b7565b60405180910390fd5b61112684848484612e26565b50505050565b611134613aca565b60066040518060a0016040529081600082018054611151906145f0565b80601f016020809104026020016040519081016040528092919081815260200182805461117d906145f0565b80156111ca5780601f1061119f576101008083540402835291602001916111ca565b820191906000526020600020905b8154815290600101906020018083116111ad57829003601f168201915b505050505081526020016001820180546111e3906145f0565b80601f016020809104026020016040519081016040528092919081815260200182805461120f906145f0565b801561125c5780601f106112315761010080835404028352916020019161125c565b820191906000526020600020905b81548152906001019060200180831161123f57829003601f168201915b505050505081526020016002820154815260200160038201548152602001600482015481525050905090565b60606000600d60008481526020019081526020016000206040518060e0016040529081600082015481526020016001820180546112c4906145f0565b80601f01602080910402602001604051908101604052809291908181526020018280546112f0906145f0565b801561133d5780601f106113125761010080835404028352916020019161133d565b820191906000526020600020905b81548152906001019060200180831161132057829003601f168201915b50505050508152602001600282018054611356906145f0565b80601f0160208091040260200160405190810160405280929190818152602001828054611382906145f0565b80156113cf5780601f106113a4576101008083540402835291602001916113cf565b820191906000526020600020905b8154815290600101906020018083116113b257829003601f168201915b5050505050815260200160038201548152602001600482015481526020016005820154815260200160068201604051806040016040529081600082018054611416906145f0565b80601f0160208091040260200160405190810160405280929190818152602001828054611442906145f0565b801561148f5780601f106114645761010080835404028352916020019161148f565b820191906000526020600020905b81548152906001019060200180831161147257829003601f168201915b5050505050815260200160018201548152505081525050905060006114b78260600151612e82565b905060006114c88360800151612e82565b905060006114d98460a00151612e82565b905060006114ee8560c0015160200151612e82565b9050600061154486602001516115038a612e82565b8860400151888888898d60c00151600001518a8b6040516020016115309a99989796959493929190614f5f565b604051602081830303815290604052612f50565b905060008160405160200161155991906150b0565b604051602081830303815290604052905080975050505050505050919050565b611581613af9565b6000600e60003373ffffffffffffffffffffffffffffffffffffffff1673ffffffffffffffffffffffffffffffffffffffff16815260200190815260200160002054905060008111156117f057600d60008281526020019081526020016000206040518060e001604052908160008201548152602001600182018054611606906145f0565b80601f0160208091040260200160405190810160405280929190818152602001828054611632906145f0565b801561167f5780601f106116545761010080835404028352916020019161167f565b820191906000526020600020905b81548152906001019060200180831161166257829003601f168201915b50505050508152602001600282018054611698906145f0565b80601f01602080910402602001604051908101604052809291908181526020018280546116c4906145f0565b80156117115780601f106116e657610100808354040283529160200191611711565b820191906000526020600020905b8154815290600101906020018083116116f457829003601f168201915b5050505050815260200160038201548152602001600482015481526020016005820154815260200160068201604051806040016040529081600082018054611758906145f0565b80601f0160208091040260200160405190810160405280929190818152602001828054611784906145f0565b80156117d15780601f106117a6576101008083540402835291602001916117d1565b820191906000526020600020905b8154815290600101906020018083116117b457829003601f168201915b50505050508152602001600182015481525050815250509150506117fe565b6117f8613af9565b80925050505b90565b6000600e60003373ffffffffffffffffffffffffffffffffffffffff1673ffffffffffffffffffffffffffffffffffffffff1681526020019081526020016000205490506000600d600083815260200190815260200160002090506000816006016001015482600501546118759190615101565b905061192b6040518060600160405280603c81526020016159df603c91398360010180546118a2906145f0565b80601f01602080910402602001604051908101604052809291908181526020018280546118ce906145f0565b801561191b5780601f106118f05761010080835404028352916020019161191b565b820191906000526020600020905b8154815290600101906020018083116118fe57829003601f168201915b50505050508460030154846130e7565b611a036040518060400160405280601b81526020017f426f73732025732068617320256420485020616e64202564204144000000000081525060066000018054611974906145f0565b80601f01602080910402602001604051908101604052809291908181526020018280546119a0906145f0565b80156119ed5780601f106119c2576101008083540402835291602001916119ed565b820191906000526020600020905b8154815290600101906020018083116119d057829003601f168201915b50505050506006600201546006600401546130e7565b6000826003015411611a4a576040517f08c379a0000000000000000000000000000000000000000000000000000000008152600401611a41906151b5565b60405180910390fd5b600060066002015411611a92576040517f08c379a0000000000000000000000000000000000000000000000000000000008152600401611a8990615247565b60405180910390fd5b6000611a9e600a613189565b1115611dda57611bfd6040518060400160405280600781526020017f2573206869742000000000000000000000000000000000000000000000000000815250836001018054611aec906145f0565b80601f0160208091040260200160405190810160405280929190818152602001828054611b18906145f0565b8015611b655780601f10611b3a57610100808354040283529160200191611b65565b820191906000526020600020905b815481529060010190602001808311611b4857829003601f168201915b505050505060066000018054611b7a906145f0565b80601f0160208091040260200160405190810160405280929190818152602001828054611ba6906145f0565b8015611bf35780601f10611bc857610100808354040283529160200191611bf3565b820191906000526020600020905b815481529060010190602001808311611bd657829003601f168201915b50505050506131e5565b806006600201541015611ce6576000600660020181905550611ce16040518060400160405280600a81526020017f257320697320646561640000000000000000000000000000000000000000000081525060066000018054611c5e906145f0565b80601f0160208091040260200160405190810160405280929190818152602001828054611c8a906145f0565b8015611cd75780601f10611cac57610100808354040283529160200191611cd7565b820191906000526020600020905b815481529060010190602001808311611cba57829003601f168201915b5050505050613284565b611dd5565b8060066002016000828254611cfb9190615267565b92505081905550611dd46040518060400160405280600981526020017f25732068703a202564000000000000000000000000000000000000000000000081525060066000018054611d4b906145f0565b80601f0160208091040260200160405190810160405280929190818152602001828054611d77906145f0565b8015611dc45780601f10611d9957610100808354040283529160200191611dc4565b820191906000526020600020905b815481529060010190602001808311611da757829003601f168201915b5050505050600660020154613320565b5b611ea6565b611ea56040518060400160405280600a81526020017f2573206d69737365642100000000000000000000000000000000000000000000815250836001018054611e22906145f0565b80601f0160208091040260200160405190810160405280929190818152602001828054611e4e906145f0565b8015611e9b5780601f10611e7057610100808354040283529160200191611e9b565b820191906000526020600020905b815481529060010190602001808311611e7e57829003601f168201915b5050505050613284565b5b6003611eb2600a613189565b106121f1576120106040518060400160405280600981526020017f257320686974202573000000000000000000000000000000000000000000000081525060066000018054611f00906145f0565b80601f0160208091040260200160405190810160405280929190818152602001828054611f2c906145f0565b8015611f795780601f10611f4e57610100808354040283529160200191611f79565b820191906000526020600020905b815481529060010190602001808311611f5c57829003601f168201915b5050505050846001018054611f8d906145f0565b80601f0160208091040260200160405190810160405280929190818152602001828054611fb9906145f0565b80156120065780601f10611fdb57610100808354040283529160200191612006565b820191906000526020600020905b815481529060010190602001808311611fe957829003601f168201915b50505050506131e5565b600660040154826003015410156120fb57600082600301819055506120f66040518060400160405280600b81526020017f257320697320646561640a000000000000000000000000000000000000000000815250836001018054612073906145f0565b80601f016020809104026020016040519081016040528092919081815260200182805461209f906145f0565b80156120ec5780601f106120c1576101008083540402835291602001916120ec565b820191906000526020600020905b8154815290600101906020018083116120cf57829003601f168201915b5050505050613284565b6121ec565b6006600401548260030160008282546121149190615267565b925050819055506121eb6040518060400160405280600a81526020017f25732068703a2025640a00000000000000000000000000000000000000000000815250836001018054612163906145f0565b80601f016020809104026020016040519081016040528092919081815260200182805461218f906145f0565b80156121dc5780601f106121b1576101008083540402835291602001916121dc565b820191906000526020600020905b8154815290600101906020018083116121bf57829003601f168201915b50505050508460030154613320565b5b6122be565b6122bd6040518060400160405280600b81526020017f2573206d6973736564210a0000000000000000000000000000000000000000008152506006600001805461223a906145f0565b80601f0160208091040260200160405190810160405280929190818152602001828054612266906145f0565b80156122b35780601f10612288576101008083540402835291602001916122b3565b820191906000526020600020905b81548152906001019060200180831161229657829003601f168201915b5050505050613284565b5b7f32bd565ee3f2cb5ddd742bbecd6048d3e9abe90b3827a40c2b72d232e71e3c9d3360066002015484600301546040516122fa93929190614a84565b60405180910390a1505050565b6060600c805480602002602001604051908101604052809291908181526020016000905b8282101561255957838290600052602060002090600802016040518060e001604052908160008201548152602001600182018054612368906145f0565b80601f0160208091040260200160405190810160405280929190818152602001828054612394906145f0565b80156123e15780601f106123b6576101008083540402835291602001916123e1565b820191906000526020600020905b8154815290600101906020018083116123c457829003601f168201915b505050505081526020016002820180546123fa906145f0565b80601f0160208091040260200160405190810160405280929190818152602001828054612426906145f0565b80156124735780601f1061244857610100808354040283529160200191612473565b820191906000526020600020905b81548152906001019060200180831161245657829003601f168201915b50505050508152602001600382015481526020016004820154815260200160058201548152602001600682016040518060400160405290816000820180546124ba906145f0565b80601f01602080910402602001604051908101604052809291908181526020018280546124e6906145f0565b80156125335780601f1061250857610100808354040283529160200191612533565b820191906000526020600020905b81548152906001019060200180831161251657829003601f168201915b50505050508152602001600182015481525050815250508152602001906001019061232b565b50505050905090565b6000600560008473ffffffffffffffffffffffffffffffffffffffff1673ffffffffffffffffffffffffffffffffffffffff16815260200190815260200160002060008373ffffffffffffffffffffffffffffffffffffffff1673ffffffffffffffffffffffffffffffffffffffff16815260200190815260200160002060009054906101000a900460ff16905092915050565b61269284848484604051602401612610949392919061529b565b6040516020818303038152906040527f5d1a971a000000000000000000000000000000000000000000000000000000007bffffffffffffffffffffffffffffffffffffffffffffffffffffffff19166020820180517bffffffffffffffffffffffffffffffffffffffffffffffffffffffff83818316178352505050506133bf565b50505050565b6001816000016000828254019250508190555050565b60007f01ffc9a7000000000000000000000000000000000000000000000000000000007bffffffffffffffffffffffffffffffffffffffffffffffffffffffff1916827bffffffffffffffffffffffffffffffffffffffffffffffffffffffff1916149050919050565b612721816133e8565b612760576040517f08c379a000000000000000000000000000000000000000000000000000000000815260040161275790614b07565b60405180910390fd5b50565b600033905090565b816004600083815260200190815260200160002060006101000a81548173ffffffffffffffffffffffffffffffffffffffff021916908373ffffffffffffffffffffffffffffffffffffffff160217905550808273ffffffffffffffffffffffffffffffffffffffff166127de83610ba1565b73ffffffffffffffffffffffffffffffffffffffff167f8c5be1e5ebec7d5bd14f71427d1e84f3dd0314c0f7b2291e5b200ac8c7c3b92560405160405180910390a45050565b60008061283083610ba1565b90508073ffffffffffffffffffffffffffffffffffffffff168473ffffffffffffffffffffffffffffffffffffffff16148061287257506128718185612562565b5b806128b057508373ffffffffffffffffffffffffffffffffffffffff16612898846105a0565b73ffffffffffffffffffffffffffffffffffffffff16145b91505092915050565b8273ffffffffffffffffffffffffffffffffffffffff166128d982610ba1565b73ffffffffffffffffffffffffffffffffffffffff161461292f576040517f08c379a000000000000000000000000000000000000000000000000000000000815260040161292690615367565b60405180910390fd5b600073ffffffffffffffffffffffffffffffffffffffff168273ffffffffffffffffffffffffffffffffffffffff160361299e576040517f08c379a0000000000000000000000000000000000000000000000000000000008152600401612995906153f9565b60405180910390fd5b6129ab8383836001613429565b8273ffffffffffffffffffffffffffffffffffffffff166129cb82610ba1565b73ffffffffffffffffffffffffffffffffffffffff1614612a21576040517f08c379a0000000000000000000000000000000000000000000000000000000008152600401612a1890615367565b60405180910390fd5b6004600082815260200190815260200160002060006101000a81549073ffffffffffffffffffffffffffffffffffffffff02191690556001600360008573ffffffffffffffffffffffffffffffffffffffff1673ffffffffffffffffffffffffffffffffffffffff168152602001908152602001600020600082825403925050819055506001600360008473ffffffffffffffffffffffffffffffffffffffff1673ffffffffffffffffffffffffffffffffffffffff16815260200190815260200160002060008282540192505081905550816002600083815260200190815260200160002060006101000a81548173ffffffffffffffffffffffffffffffffffffffff021916908373ffffffffffffffffffffffffffffffffffffffff160217905550808273ffffffffffffffffffffffffffffffffffffffff168473ffffffffffffffffffffffffffffffffffffffff167fddf252ad1be2c89b69c2b068fc378daa952ba7f163c4a11628f55a4df523b3ef60405160405180910390a4612bad838383600161354f565b505050565b600081600001549050919050565b612bda828260405180602001604052806000815250613555565b5050565b612c78838383604051602401612bf693929190615419565b6040516020818303038152906040527fca47c4eb000000000000000000000000000000000000000000000000000000007bffffffffffffffffffffffffffffffffffffffffffffffffffffffff19166020820180517bffffffffffffffffffffffffffffffffffffffffffffffffffffffff83818316178352505050506133bf565b505050565b60006002600083815260200190815260200160002060009054906101000a900473ffffffffffffffffffffffffffffffffffffffff169050919050565b8173ffffffffffffffffffffffffffffffffffffffff168373ffffffffffffffffffffffffffffffffffffffff1603612d28576040517f08c379a0000000000000000000000000000000000000000000000000000000008152600401612d1f906154a3565b60405180910390fd5b80600560008573ffffffffffffffffffffffffffffffffffffffff1673ffffffffffffffffffffffffffffffffffffffff16815260200190815260200160002060008473ffffffffffffffffffffffffffffffffffffffff1673ffffffffffffffffffffffffffffffffffffffff16815260200190815260200160002060006101000a81548160ff0219169083151502179055508173ffffffffffffffffffffffffffffffffffffffff168373ffffffffffffffffffffffffffffffffffffffff167f17307eab39ab6107e8899845ad3d59bd9653f200f220920489ca2b5937696c3183604051612e199190613c0a565b60405180910390a3505050565b612e318484846128b9565b612e3d848484846135b0565b612e7c576040517f08c379a0000000000000000000000000000000000000000000000000000000008152600401612e7390615535565b60405180910390fd5b50505050565b606060006001612e9184613737565b01905060008167ffffffffffffffff811115612eb057612eaf61409d565b5b6040519080825280601f01601f191660200182016040528015612ee25781602001600182028036833780820191505090505b509050600082602001820190505b600115612f45578080600190039150507f3031323334353637383961626364656600000000000000000000000000000000600a86061a8153600a8581612f3957612f38615555565b5b04945060008503612ef0575b819350505050919050565b606060008251905060008103612f7857604051806020016040528060008152509150506130e2565b60006003600283612f899190615584565b612f9391906155b8565b6004612f9f9190615101565b90506000602082612fb09190615584565b67ffffffffffffffff811115612fc957612fc861409d565b5b6040519080825280601f01601f191660200182016040528015612ffb5781602001600182028036833780820191505090505b5090506000604051806060016040528060408152602001615a49604091399050600181016020830160005b8681101561309f5760038101905062ffffff818a015116603f8160121c168401518060081b905060ff603f83600c1c1686015116810190508060081b905060ff603f8360061c1686015116810190508060081b905060ff603f831686015116810190508060e01b90508084526004840193505050613026565b5060038606600181146130b957600281146130c9576130d4565b613d3d60f01b60028303526130d4565b603d60f81b60018303525b508484525050819450505050505b919050565b6131838484848460405160240161310194939291906155e9565b6040516020818303038152906040527ff45d7d2c000000000000000000000000000000000000000000000000000000007bffffffffffffffffffffffffffffffffffffffffffffffffffffffff19166020820180517bffffffffffffffffffffffffffffffffffffffffffffffffffffffff83818316178352505050506133bf565b50505050565b6000600f600081548092919061319e9061563c565b9190505550814233600f546040516020016131bb939291906156ed565b6040516020818303038152906040528051906020012060001c6131de919061572a565b9050919050565b61327f8383836040516024016131fd9392919061575b565b6040516020818303038152906040527f2ced7cef000000000000000000000000000000000000000000000000000000007bffffffffffffffffffffffffffffffffffffffffffffffffffffffff19166020820180517bffffffffffffffffffffffffffffffffffffffffffffffffffffffff83818316178352505050506133bf565b505050565b61331c828260405160240161329a9291906157a7565b6040516020818303038152906040527f4b5c4277000000000000000000000000000000000000000000000000000000007bffffffffffffffffffffffffffffffffffffffffffffffffffffffff19166020820180517bffffffffffffffffffffffffffffffffffffffffffffffffffffffff83818316178352505050506133bf565b5050565b6133ba838383604051602401613338939291906157de565b6040516020818303038152906040527f5821efa1000000000000000000000000000000000000000000000000000000007bffffffffffffffffffffffffffffffffffffffffffffffffffffffff19166020820180517bffffffffffffffffffffffffffffffffffffffffffffffffffffffff83818316178352505050506133bf565b505050565b60008151905060006a636f6e736f6c652e6c6f679050602083016000808483855afa5050505050565b60008073ffffffffffffffffffffffffffffffffffffffff1661340a83612c7d565b73ffffffffffffffffffffffffffffffffffffffff1614159050919050565b600181111561354957600073ffffffffffffffffffffffffffffffffffffffff168473ffffffffffffffffffffffffffffffffffffffff16146134bd5780600360008673ffffffffffffffffffffffffffffffffffffffff1673ffffffffffffffffffffffffffffffffffffffff16815260200190815260200160002060008282546134b59190615267565b925050819055505b600073ffffffffffffffffffffffffffffffffffffffff168373ffffffffffffffffffffffffffffffffffffffff16146135485780600360008573ffffffffffffffffffffffffffffffffffffffff1673ffffffffffffffffffffffffffffffffffffffff16815260200190815260200160002060008282546135409190615584565b925050819055505b5b50505050565b50505050565b61355f838361388a565b61356c60008484846135b0565b6135ab576040517f08c379a00000000000000000000000000000000000000000000000000000000081526004016135a290615535565b60405180910390fd5b505050565b60006135d18473ffffffffffffffffffffffffffffffffffffffff16613aa7565b1561372a578373ffffffffffffffffffffffffffffffffffffffff1663150b7a026135fa612763565b8786866040518563ffffffff1660e01b815260040161361c9493929190615878565b6020604051808303816000875af192505050801561365857506040513d601f19601f8201168201806040525081019061365591906158d9565b60015b6136da573d8060008114613688576040519150601f19603f3d011682016040523d82523d6000602084013e61368d565b606091505b5060008151036136d2576040517f08c379a00000000000000000000000000000000000000000000000000000000081526004016136c990615535565b60405180910390fd5b805181602001fd5b63150b7a0260e01b7bffffffffffffffffffffffffffffffffffffffffffffffffffffffff1916817bffffffffffffffffffffffffffffffffffffffffffffffffffffffff19161491505061372f565b600190505b949350505050565b600080600090507a184f03e93ff9f4daa797ed6e38ed64bf6a1f0100000000000000008310613795577a184f03e93ff9f4daa797ed6e38ed64bf6a1f010000000000000000838161378b5761378a615555565b5b0492506040810190505b6d04ee2d6d415b85acef810000000083106137d2576d04ee2d6d415b85acef810000000083816137c8576137c7615555565b5b0492506020810190505b662386f26fc10000831061380157662386f26fc1000083816137f7576137f6615555565b5b0492506010810190505b6305f5e100831061382a576305f5e10083816138205761381f615555565b5b0492506008810190505b612710831061384f57612710838161384557613844615555565b5b0492506004810190505b60648310613872576064838161386857613867615555565b5b0492506002810190505b600a8310613881576001810190505b80915050919050565b600073ffffffffffffffffffffffffffffffffffffffff168273ffffffffffffffffffffffffffffffffffffffff16036138f9576040517f08c379a00000000000000000000000000000000000000000000000000000000081526004016138f090615952565b60405180910390fd5b613902816133e8565b15613942576040517f08c379a0000000000000000000000000000000000000000000000000000000008152600401613939906159be565b60405180910390fd5b613950600083836001613429565b613959816133e8565b15613999576040517f08c379a0000000000000000000000000000000000000000000000000000000008152600401613990906159be565b60405180910390fd5b6001600360008473ffffffffffffffffffffffffffffffffffffffff1673ffffffffffffffffffffffffffffffffffffffff16815260200190815260200160002060008282540192505081905550816002600083815260200190815260200160002060006101000a81548173ffffffffffffffffffffffffffffffffffffffff021916908373ffffffffffffffffffffffffffffffffffffffff160217905550808273ffffffffffffffffffffffffffffffffffffffff16600073ffffffffffffffffffffffffffffffffffffffff167fddf252ad1be2c89b69c2b068fc378daa952ba7f163c4a11628f55a4df523b3ef60405160405180910390a4613aa360008383600161354f565b5050565b6000808273ffffffffffffffffffffffffffffffffffffffff163b119050919050565b6040518060a0016040528060608152602001606081526020016000815260200160008152602001600081525090565b6040518060e00160405280600081526020016060815260200160608152602001600081526020016000815260200160008152602001613b36613b3c565b81525090565b604051806040016040528060608152602001600081525090565b6000604051905090565b600080fd5b600080fd5b60007fffffffff0000000000000000000000000000000000000000000000000000000082169050919050565b613b9f81613b6a565b8114613baa57600080fd5b50565b600081359050613bbc81613b96565b92915050565b600060208284031215613bd857613bd7613b60565b5b6000613be684828501613bad565b91505092915050565b60008115159050919050565b613c0481613bef565b82525050565b6000602082019050613c1f6000830184613bfb565b92915050565b600081519050919050565b600082825260208201905092915050565b60005b83811015613c5f578082015181840152602081019050613c44565b60008484015250505050565b6000601f19601f8301169050919050565b6000613c8782613c25565b613c918185613c30565b9350613ca1818560208601613c41565b613caa81613c6b565b840191505092915050565b60006020820190508181036000830152613ccf8184613c7c565b905092915050565b6000819050919050565b613cea81613cd7565b8114613cf557600080fd5b50565b600081359050613d0781613ce1565b92915050565b600060208284031215613d2357613d22613b60565b5b6000613d3184828501613cf8565b91505092915050565b600073ffffffffffffffffffffffffffffffffffffffff82169050919050565b6000613d6582613d3a565b9050919050565b613d7581613d5a565b82525050565b6000602082019050613d906000830184613d6c565b92915050565b613d9f81613d5a565b8114613daa57600080fd5b50565b600081359050613dbc81613d96565b92915050565b60008060408385031215613dd957613dd8613b60565b5b6000613de785828601613dad565b9250506020613df885828601613cf8565b9150509250929050565b600080600060608486031215613e1b57613e1a613b60565b5b6000613e2986828701613dad565b9350506020613e3a86828701613dad565b9250506040613e4b86828701613cf8565b9150509250925092565b600060208284031215613e6b57613e6a613b60565b5b6000613e7984828501613dad565b91505092915050565b613e8b81613cd7565b82525050565b6000602082019050613ea66000830184613e82565b92915050565b600082825260208201905092915050565b6000613ec882613c25565b613ed28185613eac565b9350613ee2818560208601613c41565b613eeb81613c6b565b840191505092915050565b613eff81613cd7565b82525050565b60006040830160008301518482036000860152613f228282613ebd565b9150506020830151613f376020860182613ef6565b508091505092915050565b600060e082019050613f57600083018a613e82565b8181036020830152613f698189613c7c565b90508181036040830152613f7d8188613c7c565b9050613f8c6060830187613e82565b613f996080830186613e82565b613fa660a0830185613e82565b81810360c0830152613fb88184613f05565b905098975050505050505050565b613fcf81613bef565b8114613fda57600080fd5b50565b600081359050613fec81613fc6565b92915050565b6000806040838503121561400957614008613b60565b5b600061401785828601613dad565b925050602061402885828601613fdd565b9150509250929050565b600060a082019050818103600083015261404c8188613c7c565b905081810360208301526140608187613c7c565b905061406f6040830186613e82565b61407c6060830185613e82565b6140896080830184613e82565b9695505050505050565b600080fd5b600080fd5b7f4e487b7100000000000000000000000000000000000000000000000000000000600052604160045260246000fd5b6140d582613c6b565b810181811067ffffffffffffffff821117156140f4576140f361409d565b5b80604052505050565b6000614107613b56565b905061411382826140cc565b919050565b600067ffffffffffffffff8211156141335761413261409d565b5b61413c82613c6b565b9050602081019050919050565b82818337600083830152505050565b600061416b61416684614118565b6140fd565b90508281526020810184848401111561418757614186614098565b5b614192848285614149565b509392505050565b600082601f8301126141af576141ae614093565b5b81356141bf848260208601614158565b91505092915050565b600080600080608085870312156141e2576141e1613b60565b5b60006141f087828801613dad565b945050602061420187828801613dad565b935050604061421287828801613cf8565b925050606085013567ffffffffffffffff81111561423357614232613b65565b5b61423f8782880161419a565b91505092959194509250565b600060a08301600083015184820360008601526142688282613ebd565b915050602083015184820360208601526142828282613ebd565b91505060408301516142976040860182613ef6565b5060608301516142aa6060860182613ef6565b5060808301516142bd6080860182613ef6565b508091505092915050565b600060208201905081810360008301526142e2818461424b565b905092915050565b600060408301600083015184820360008601526143078282613ebd565b915050602083015161431c6020860182613ef6565b508091505092915050565b600060e08301600083015161433f6000860182613ef6565b50602083015184820360208601526143578282613ebd565b915050604083015184820360408601526143718282613ebd565b91505060608301516143866060860182613ef6565b5060808301516143996080860182613ef6565b5060a08301516143ac60a0860182613ef6565b5060c083015184820360c08601526143c482826142ea565b9150508091505092915050565b600060208201905081810360008301526143eb8184614327565b905092915050565b600081519050919050565b600082825260208201905092915050565b6000819050602082019050919050565b600060e0830160008301516144376000860182613ef6565b506020830151848203602086015261444f8282613ebd565b915050604083015184820360408601526144698282613ebd565b915050606083015161447e6060860182613ef6565b5060808301516144916080860182613ef6565b5060a08301516144a460a0860182613ef6565b5060c083015184820360c08601526144bc82826142ea565b9150508091505092915050565b60006144d5838361441f565b905092915050565b6000602082019050919050565b60006144f5826143f3565b6144ff81856143fe565b9350836020820285016145118561440f565b8060005b8581101561454d578484038952815161452e85826144c9565b9450614539836144dd565b925060208a01995050600181019050614515565b50829750879550505050505092915050565b6000602082019050818103600083015261457981846144ea565b905092915050565b6000806040838503121561459857614597613b60565b5b60006145a685828601613dad565b92505060206145b785828601613dad565b9150509250929050565b7f4e487b7100000000000000000000000000000000000000000000000000000000600052602260045260246000fd5b6000600282049050600182168061460857607f821691505b60208210810361461b5761461a6145c1565b5b50919050565b7f4552433732313a20617070726f76616c20746f2063757272656e74206f776e6560008201527f7200000000000000000000000000000000000000000000000000000000000000602082015250565b600061467d602183613c30565b915061468882614621565b604082019050919050565b600060208201905081810360008301526146ac81614670565b9050919050565b7f4552433732313a20617070726f76652063616c6c6572206973206e6f7420746f60008201527f6b656e206f776e6572206f7220617070726f76656420666f7220616c6c000000602082015250565b600061470f603d83613c30565b915061471a826146b3565b604082019050919050565b6000602082019050818103600083015261473e81614702565b9050919050565b7f4552433732313a2063616c6c6572206973206e6f7420746f6b656e206f776e6560008201527f72206f7220617070726f76656400000000000000000000000000000000000000602082015250565b60006147a1602d83613c30565b91506147ac82614745565b604082019050919050565b600060208201905081810360008301526147d081614794565b9050919050565b7f4e487b7100000000000000000000000000000000000000000000000000000000600052603260045260246000fd5b60008190508160005260206000209050919050565b60006020601f8301049050919050565b600082821b905092915050565b6000600883026148687fffffffffffffffffffffffffffffffffffffffffffffffffffffffffffffffff8261482b565b614872868361482b565b95508019841693508086168417925050509392505050565b6000819050919050565b60006148af6148aa6148a584613cd7565b61488a565b613cd7565b9050919050565b6000819050919050565b6148c983614894565b6148dd6148d5826148b6565b848454614838565b825550505050565b600090565b6148f26148e5565b6148fd8184846148c0565b505050565b5b81811015614921576149166000826148ea565b600181019050614903565b5050565b601f8211156149665761493781614806565b6149408461481b565b8101602085101561494f578190505b61496361495b8561481b565b830182614902565b50505b505050565b600082821c905092915050565b60006149896000198460080261496b565b1980831691505092915050565b60006149a28383614978565b9150826002028217905092915050565b6149bb82613c25565b67ffffffffffffffff8111156149d4576149d361409d565b5b6149de82546145f0565b6149e9828285614925565b600060209050601f831160018114614a1c5760008415614a0a578287015190505b614a148582614996565b865550614a7c565b601f198416614a2a86614806565b60005b82811015614a5257848901518255600182019150602085019450602081019050614a2d565b86831015614a6f5784890151614a6b601f891682614978565b8355505b6001600288020188555050505b505050505050565b6000606082019050614a996000830186613d6c565b614aa66020830185613e82565b614ab36040830184613e82565b949350505050565b7f4552433732313a20696e76616c696420746f6b656e2049440000000000000000600082015250565b6000614af1601883613c30565b9150614afc82614abb565b602082019050919050565b60006020820190508181036000830152614b2081614ae4565b9050919050565b7f4552433732313a2061646472657373207a65726f206973206e6f74206120766160008201527f6c6964206f776e65720000000000000000000000000000000000000000000000602082015250565b6000614b83602983613c30565b9150614b8e82614b27565b604082019050919050565b60006020820190508181036000830152614bb281614b76565b9050919050565b600081905092915050565b7f7b226e616d65223a202200000000000000000000000000000000000000000000600082015250565b6000614bfa600a83614bb9565b9150614c0582614bc4565b600a82019050919050565b6000614c1b82613c25565b614c258185614bb9565b9350614c35818560208601613c41565b80840191505092915050565b7f202d2d204e465420233a20000000000000000000000000000000000000000000600082015250565b6000614c77600b83614bb9565b9150614c8282614c41565b600b82019050919050565b7f222c20226465736372697074696f6e223a20225468697320697320616e204e4660008201527f542074686174206c6574732070656f706c6520706c617920696e20746865206760208201527f616d6520506f6b656d6f6e205275736821222c2022696d616765223a20220000604082015250565b6000614d0f605e83614bb9565b9150614d1a82614c8d565b605e82019050919050565b7f222c202261747472696275746573223a205b207b202274726169745f7479706560008201527f223a20224865616c746820506f696e74222c202276616c7565223a2000000000602082015250565b6000614d81603c83614bb9565b9150614d8c82614d25565b603c82019050919050565b7f2c20226d61785f76616c7565223a200000000000000000000000000000000000600082015250565b6000614dcd600f83614bb9565b9150614dd882614d97565b600f82019050919050565b7f7d2c207b2022646973706c61795f74797065223a20226e756d626572222c202260008201527f74726169745f74797065223a202241747461636b222c202276616c7565223a20602082015250565b6000614e3f604083614bb9565b9150614e4a82614de3565b604082019050919050565b7f7d2c207b2022646973706c61795f74797065223a20226e756d626572222c202260008201527f74726169745f74797065223a2022000000000000000000000000000000000000602082015250565b6000614eb1602e83614bb9565b9150614ebc82614e55565b602e82019050919050565b7f222c202276616c7565223a200000000000000000000000000000000000000000600082015250565b6000614efd600c83614bb9565b9150614f0882614ec7565b600c82019050919050565b7f7d205d207d000000000000000000000000000000000000000000000000000000600082015250565b6000614f49600583614bb9565b9150614f5482614f13565b600582019050919050565b6000614f6a82614bed565b9150614f76828d614c10565b9150614f8182614c6a565b9150614f8d828c614c10565b9150614f9882614d02565b9150614fa4828b614c10565b9150614faf82614d74565b9150614fbb828a614c10565b9150614fc682614dc0565b9150614fd28289614c10565b9150614fdd82614e32565b9150614fe98288614c10565b9150614ff482614dc0565b91506150008287614c10565b915061500b82614ea4565b91506150178286614c10565b915061502282614ef0565b915061502e8285614c10565b915061503982614dc0565b91506150458284614c10565b915061505082614f3c565b91508190509b9a5050505050505050505050565b7f646174613a6170706c69636174696f6e2f6a736f6e3b6261736536342c000000600082015250565b600061509a601d83614bb9565b91506150a582615064565b601d82019050919050565b60006150bb8261508d565b91506150c78284614c10565b915081905092915050565b7f4e487b7100000000000000000000000000000000000000000000000000000000600052601160045260246000fd5b600061510c82613cd7565b915061511783613cd7565b925082820261512581613cd7565b9150828204841483151761513c5761513b6150d2565b5b5092915050565b7f4572726f723a20706f6b656d6f6e206d757374206861766520687020746f206160008201527f747461636b20626f73732e000000000000000000000000000000000000000000602082015250565b600061519f602b83613c30565b91506151aa82615143565b604082019050919050565b600060208201905081810360008301526151ce81615192565b9050919050565b7f4572726f723a20626f7373206d757374206861766520687020746f206174746160008201527f636b20706f6b656d6f6e2e000000000000000000000000000000000000000000602082015250565b6000615231602b83613c30565b915061523c826151d5565b604082019050919050565b6000602082019050818103600083015261526081615224565b9050919050565b600061527282613cd7565b915061527d83613cd7565b9250828203905081811115615295576152946150d2565b5b92915050565b600060808201905081810360008301526152b58187613c7c565b905081810360208301526152c98186613c7c565b90506152d86040830185613e82565b81810360608301526152ea8184613c7c565b905095945050505050565b7f4552433732313a207472616e736665722066726f6d20696e636f72726563742060008201527f6f776e6572000000000000000000000000000000000000000000000000000000602082015250565b6000615351602583613c30565b915061535c826152f5565b604082019050919050565b6000602082019050818103600083015261538081615344565b9050919050565b7f4552433732313a207472616e7366657220746f20746865207a65726f2061646460008201527f7265737300000000000000000000000000000000000000000000000000000000602082015250565b60006153e3602483613c30565b91506153ee82615387565b604082019050919050565b60006020820190508181036000830152615412816153d6565b9050919050565b600060608201905081810360008301526154338186613c7c565b90506154426020830185613e82565b61544f6040830184613e82565b949350505050565b7f4552433732313a20617070726f766520746f2063616c6c657200000000000000600082015250565b600061548d601983613c30565b915061549882615457565b602082019050919050565b600060208201905081810360008301526154bc81615480565b9050919050565b7f4552433732313a207472616e7366657220746f206e6f6e20455243373231526560008201527f63656976657220696d706c656d656e7465720000000000000000000000000000602082015250565b600061551f603283613c30565b915061552a826154c3565b604082019050919050565b6000602082019050818103600083015261554e81615512565b9050919050565b7f4e487b7100000000000000000000000000000000000000000000000000000000600052601260045260246000fd5b600061558f82613cd7565b915061559a83613cd7565b92508282019050808211156155b2576155b16150d2565b5b92915050565b60006155c382613cd7565b91506155ce83613cd7565b9250826155de576155dd615555565b5b828204905092915050565b600060808201905081810360008301526156038187613c7c565b905081810360208301526156178186613c7c565b90506156266040830185613e82565b6156336060830184613e82565b95945050505050565b600061564782613cd7565b91507fffffffffffffffffffffffffffffffffffffffffffffffffffffffffffffffff8203615679576156786150d2565b5b600182019050919050565b6000819050919050565b61569f61569a82613cd7565b615684565b82525050565b60008160601b9050919050565b60006156bd826156a5565b9050919050565b60006156cf826156b2565b9050919050565b6156e76156e282613d5a565b6156c4565b82525050565b60006156f9828661568e565b60208201915061570982856156d6565b601482019150615719828461568e565b602082019150819050949350505050565b600061573582613cd7565b915061574083613cd7565b9250826157505761574f615555565b5b828206905092915050565b600060608201905081810360008301526157758186613c7c565b905081810360208301526157898185613c7c565b9050818103604083015261579d8184613c7c565b9050949350505050565b600060408201905081810360008301526157c18185613c7c565b905081810360208301526157d58184613c7c565b90509392505050565b600060608201905081810360008301526157f88186613c7c565b9050818103602083015261580c8185613c7c565b905061581b6040830184613e82565b949350505050565b600081519050919050565b600082825260208201905092915050565b600061584a82615823565b615854818561582e565b9350615864818560208601613c41565b61586d81613c6b565b840191505092915050565b600060808201905061588d6000830187613d6c565b61589a6020830186613d6c565b6158a76040830185613e82565b81810360608301526158b9818461583f565b905095945050505050565b6000815190506158d381613b96565b92915050565b6000602082840312156158ef576158ee613b60565b5b60006158fd848285016158c4565b91505092915050565b7f4552433732313a206d696e7420746f20746865207a65726f2061646472657373600082015250565b600061593c602083613c30565b915061594782615906565b602082019050919050565b6000602082019050818103600083015261596b8161592f565b9050919050565b7f4552433732313a20746f6b656e20616c7265616479206d696e74656400000000600082015250565b60006159a8601c83613c30565b91506159b382615972565b602082019050919050565b600060208201905081810360008301526159d78161599b565b905091905056fe0a506c61796572207769746820706f6b656d6f6e2025732061626f757420746f2061747461636b2e2048617320256420485020616e642025642041444d696e746564204e4654207769746820746f6b656e496420256420616e6420706f6b656d6f6e496e6465782025644142434445464748494a4b4c4d4e4f505152535455565758595a6162636465666768696a6b6c6d6e6f707172737475767778797a303132333435363738392b2fa264697066735822122039efba5f2289caea0266d7592887e3a70784f9a6b3b1849be20067881aedcac364736f6c63430008110033446f6e6520696e697469616c697a696e6720626f737320257320776974682025642048502c20696d67202573446f6e6520696e697469616c697a696e6720257320776974682048502025642c20696d67202573",
	"linkReferences": {},
	"deployedLinkReferences": {}
}